:020000041000EA
:1000000000B5324B212058609868022188439860DF
:10001000D860186158612E4B002199600221596106
:100020000121F02299502B49196001219960352056
:1000300000F044F80222904214D00621196600F024
:1000400034F8196E01211966002018661A6600F04E
:100050002CF8196E196E196E052000F02FF8012189
:100060000842F9D1002199601B49196000215960AB
:100070001A491B48016001219960EB211966A021F2
:10008000196600F012F800219960164914480160C1
:100090000121996001BC002800D000471248134993
:1000A000086003C880F30888084703B5996A0420EC
:1000B0000142FBD001200142F8D103BD02B5186610
:1000C0001866FFF7F2FF186E186E02BD00000240BE
:1000D000000000180000070000035F00212200005C
:1000E000F4000018222000A00001001008ED00E03C
:1000F00000000000000000000000000074B24E7A12
:1001000000200420F7010010C3010010C5010010F9
:10011000C1010010C1010010C1010010C101001097
:10012000C1010010C1010010C1010010C701001081
:10013000C1010010C1010010C9010010CB01001065
:10014000CD010010CD010010CD010010CD01001037
:10015000CD010010CD010010CD010010CD01001027
:10016000CD010010CD010010CD010010CD01001017
:10017000CD010010CD010010CD010010CD01001007
:10018000CD010010CD010010CD010010CD010010F7
:10019000CD010010CD010010CD010010CD010010E7
:1001A000CD010010CD010010CD010010CD010010D7
:1001B000CD010010CD010010CD010010CD010010C7
:1001C00000BE00BE00BE00BE00BE00BEEFF3058054
:1001D000103800BEF2EB88715CB3001080B30010E1
:1001E0003402001090A31AE700201F49086006C8D7
:1001F00081F3088810471D48006800282FD10DA4FE
:100200000ECC002902D000F012F8F9E71849194A7B
:10021000002000E001C19142FCD1174988471749ED
:1002200088471749884700BEFDE701C901C29A42C5
:10023000FBD3704780B30010C0000020540D002095
:1002400014C00010000004200000042014C000109E
:10025000001004200010042000000000704709482E
:1002600004F080FC0047000008ED00E0000000D032
:10027000780D0020201C0020ED38001079060010B9
:10028000A93800105756000006005250ABB3605317
:10029000B8A7001006005250861C0302C8A7001021
:1002A000060052505422A29DD0A7001005005250C3
:1002B000DE65F46814C00010F8B5C04610B5064CF1
:1002C0002378002B07D1054B002B02D0044800E017
:1002D00000BF0123237010BD880E00200000000025
:1002E00068910010044B10B5002B03D0034904485B
:1002F00000E000BF10BDC046000000008C0E0020D2
:1003000068910010012800D07047134B9942FBD12F
:10031000124B134A1A60002228215A5401317E30B0
:10032000585401315A5401315A5411315A5401313F
:100330005A543C39596001319960DA6001311961D0
:1003400017315961033999610131D9610239196253
:1003500003315962DA62D7E7FFFF0000201900205D
:1003600000C0034010B5172800D010BD0D4C200070
:1003700001F016F82D23E35C002B08D1094A2C2349
:10038000D35C002B09D1074800F0D8FFEDE76422C9
:100390000549044801F096F8F0E7100000F054FF1A
:1003A000F1E7C0462019002060190020F0B5DE46B4
:1003B00057464E464546E0B58FB0804603910492BD
:1003C00005935C4C5C49200008F0D0FB032106201B
:1003D00001F036F90321072001F032F90022012152
:1003E000062001F045F900220121072001F040F923
:1003F000272204AB9C466244A2231370262060444B
:100400008346A4230370252060448246A6230370FC
:100410000DA881460233037023266644AA23337055
:1004200022276744AC233B7000250095AB3B772126
:10043000200008F0C7FB009502230CAA77212000BA
:1004400008F0CCFB009501235A467721200008F0E4
:10045000B9FB009502230BAA7721200008F0BEFB10
:100460000095012352467721200008F0ABFB009550
:1004700002230AAA7721200008F0B0FB009501238F
:100480004A467721200008F09DFB0095022309AA27
:100490007721200008F0A2FB00950123320077218C
:1004A000200008F08FFB0095022308AA7721200086
:1004B00008F094FB009501233A007721200008F012
:1004C00081FB0095022307AA7721200008F086FB14
:1004D00004A8212400190278120204A8013C001982
:1004E000037813434046038004A8427F1202037F2F
:1004F000134303990B80427E1202037E1343049A36
:100500001380427D1202037D1343059A1380427CBF
:100510001202037C1343189A1380427B1202037B5E
:100520001343199A13800FB0F0BCBB46B246A946DC
:10053000A046F0BD180D0020A086010010B5962140
:100540000B4C8901200002F04DFF02210C2001F02C
:1005500077F802210D2001F073F8226BC0231B02F3
:100560001A40044980235B010B431A6010BDC0464A
:10057000004003403040034010B50F2001F038F92F
:10058000102001F035F9012200210F2001F070F850
:1005900001220021102001F06BF8074C07492000D0
:1005A00000F0D8F80100064805F092FB0F2120006A
:1005B00000F0EEF810BDC0461414002000002050DA
:1005C0006891001010B5112001F012F9122001F00D
:1005D0000FF901220021112001F04AF80122002127
:1005E000122001F045F8074C0749200000F0B2F84E
:1005F0000100064805F06CFB1121200000F0C8F84E
:1006000010BDC0463C14002000003050689100101E
:1006100000B587B004210B2001F012F800220392EC
:1006200004920592102304930E4B059380235B00E4
:1006300004930D4B05930D4B5A66DA661A67059ABB
:1006400001925A67049A9A66012203990A435A66EC
:10065000074B1B681B0C1B04064A1360052007B0E0
:1006600000BDC046FFFF00004A4C000000000540EE
:10067000700005407010054010B588B0FFF7C8FF46
:10068000264B186083001B189B00254A9446634440
:100690001A680124210091438022520113431960FA
:1006A00005F022FB05AB019316236B44009306ABC8
:1006B0001A226A4407A91E206844FFF777FEFFF755
:1006C0003DFF184802F00CFAFFF756FF164B186072
:1006D000FFF778FF154B1860154800F0E3FF154849
:1006E00002F0FEF914482A23C45400F06BFF1348AB
:1006F00005F0BEFA124B1A6803929B886A46138271
:1007000008F0A4F86B461874062203A90A4800F002
:1007100087FDFA20800002F0E3F9E8E7DC1B002007
:1007200000000540B80B00003814002060140020C1
:100730006503001088130000201900206C91001040
:100740007C91001010B502490120FFF7DBFD10BDC0
:10075000FFFF000070B506000D000C49280008F0EE
:100760009FFB041E01D1200070BD300020C010226C
:10077000002105F041F9300014301022002105F06D
:100780003BF90249280008F09FFBECE76492001057
:10079000F0B5C64600B58EB004000E00002100681A
:1007A00008F060FB051E00DAB6E01022002106A862
:1007B00005F022F980235B020693F8235B0207937E
:1007C0008023DB020893C0231B030893102206A991
:1007D00002A805F017F9039B0193524A1A40DC2343
:1007E0005B0213430393102202A90AA805F00AF939
:1007F0000C9B01934C4B019A13400C930D9A019260
:100800004A4A01990A40F60316430D969B009B083D
:100810008022120613430C932E000AAB10222900EB
:10082000206808F06DFB002008F0DCFB002800DAEF
:1008300075E02B1D9B00E31858603D4B0C285DD8DC
:100840003C4A1340C20213430C229343043A13431D
:10085000394A1340394A1340394A1340012213439D
:10086000384A1340022293430E329343103293438B
:100870002A1D354927688F4246D0082152183F2A41
:1008800044D832491940D3030B43AA00A218111DC2
:1008900088462900083189002768BC4661448001E8
:1008A000A027FF05BC46604401604146416001212C
:1008B00049428160C36000235360536820310B407C
:1008C0002349194373009A19D20020688446624470
:1008D000D83211609B19DB00226894466344D833F8
:1008E0001C4A1A6021680A680123B3409A431343E3
:1008F0000B6028000EB080BCB846F0BD164B174AFE
:10090000C321174802F0D4FF0021B7E7154B164A60
:10091000B521134802F0CCFF01256D42E9E701251E
:100920006D42E6E77F00FEFFFFFF0AFEFF7FF0FF5C
:1009300010801F00FF87FFFF3FF8FFFFFFFFBFFF93
:10094000FFFFDFFFFFFF7FFF00002050FF7FE0FF82
:1009500020E0000040A000008C910010BC9200102C
:10096000AC91001050920010A4920010F8B5040051
:1009700001252B0042689340D0273F06BB6101222E
:100980000E49006808F0B0FB01220D49206808F00C
:10099000ABFB0C4E01223100206808F0A5FB0122C0
:1009A0003100206808F0A0FB01223100206808F027
:1009B0009BFB63689D407D61F8BDC046CA940010F2
:1009C000C4940010DE940010F8B5CE46474680B5BA
:1009D00004000126330042689340D022120691465B
:1009E000936101221649006808F07EFB154D164FF1
:1009F00001232A003900206808F08EFB297813486B
:100A000005F066F901232A003900206808F084FB0C
:100A100029780F4B9846180005F05AF901232A004F
:100A20003900206808F078FB63689E404B465E61A1
:100A30002978404605F04CF9C0BCB946B046F8BD2F
:100A4000C59400101A1C0020DE940010D8920010EB
:100A5000E492001070B50400402207211E4805F002
:100A600037F9012362689340D022120693611B4D2F
:100A700001232A001A49206808F04EFB01232A00AE
:100A80001849206808F048FB01232A00164920680D
:100A900008F042FB01232A001449206808F03CFBBF
:100AA0002978134805F014F900250BE00B4E0123BB
:100AB00032000E49206808F02FFB31780D4805F010
:100AC00007F90135012DF1DD626801239340D02241
:100AD0001206536170BDC046F09200101A1C00202F
:100AE000C6940010DD940010DC940010DE94001019
:100AF000D8920010FC92001070B50400294805F04F
:100B0000B7F8606800F074FE01252B00626893401E
:100B1000D026360673622B00626893407361206AA8
:100B200000F066FE2B00226A934073622B00226A5B
:100B300093407361606900F05BFE2B006269934033
:100B400073622B0062699340B361E06900F050FE6C
:100B5000E3699D40B5621449206808F0B1F8236844
:100B60005A68022002401D1DC021890129430860E6
:100B7000186807214140CF200840802149010B43DC
:100B8000186080239B012B431A600121A06800F0AC
:100B900057FD0121E06800F053FD2069012100F0BC
:100BA0004FFD70BD0893001020A1070070B5040030
:100BB0002A23C35C002B14D101252B0062689340CB
:100BC000D0263606B36101220849206808F08CFA65
:100BD00001220749206808F087FA63689D40756123
:100BE00070BD044805F044F8E6E7C046D094001014
:100BF000CB9400101893001070B582B004006B46BF
:100C00000422DA716B4603329A716B4600225A71E4
:100C100001AB01321A702A23C35C002B27D10125B6
:100C20002B0062689340D0263606B3610122124938
:100C3000206808F059FA01226B46D91D206808F097
:100C400053FA01226B46991D206808F04DFA0122E3
:100C50006B46591D206808F047FA012201A9206857
:100C600008F042FA63689D40756102B070BD0348A8
:100C700004F0FEFFD3E7C046C79400103493001081
:100C8000F0B583B0040001AD39232B70093B6B70C4
:100C90000023AB70EB701649164805F019F80126D1
:100CA000330062689340D0273F06BB61012212499E
:100CB000206808F019FA01222900206808F014FAC7
:100CC00001226B46591D206808F00EFA01226B467E
:100CD000991D206808F008FA01226B46D91D20688A
:100CE00008F002FA63689E407E6103B0F0BDC04622
:100CF000C0CA893648930010C9940010F0B5C646A2
:100D000000B582B0040007236B4498460023424696
:100D100013706B469F1D04233B7001252B00426816
:100D20009340D0263606B36101220A49006808F0D4
:100D3000DBF901224146206808F0D6F9012239008A
:100D4000206808F0D1F963689D40756102B080BCED
:100D5000B846F0BDCD94001070B5040001252B00FD
:100D600042689340D0263606B361012209490068E3
:100D700008F0BAF9210028310122206808F0B4F9FE
:100D8000210029310122206808F0AEF963689D40F6
:100D9000756170BDD8940010F0B5C64600B582B03C
:100DA000040090461D006B46D971FF2D1ED8012608
:100DB000330042689340D0273F06BB6101220D49B2
:100DC000006808F091F901226B46D91D206808F0EF
:100DD0008BF92A004146206808F086F963689E4036
:100DE0007E61002002B080BCB846F0BD01204042C8
:100DF000F8E7C046D6940010F0B5D6464F464646B2
:100E0000C0B582B0040007236B449A460B235246B8
:100E10001370053B6B44994603234A461370023313
:100E20006B44984604234246137001AF01253D7080
:100E30002B0042689340D0263606B3610122104948
:100E4000006808F051F901225146206808F04CF979
:100E500001224946206808F047F9012241462068EE
:100E600008F042F901223900206808F03DF9636872
:100E70009D40756102B0E0BCBA46B146A846F0BDDF
:100E8000D9940010F0B5DE4657464E464546E0B5CB
:100E900083B0040007236B449B4600235A4613701B
:100EA00006226A4492460F2251460A700A3A6A4460
:100EB0009146137001AA9046642241460A706A4620
:100EC000D71C0126D67093701B4804F0D1FE330066
:100ED00062689340D0252D06AB6101221749206836
:100EE00008F002F901225946206808F0FDF80122B5
:100EF0005146206808F0F8F801224946206808F0B9
:100F0000F3F801224146206808F0EEF8012239008A
:100F1000206808F0E9F801226B46991C206808F067
:100F2000E3F863689E406E6103B0F0BCBB46B24616
:100F3000A946A046F0BDC04664930010D3940010AB
:100F400070B582B004006B460122DA712A23C35CBB
:100F5000002B16D101252B0062689340D02636065F
:100F6000B36101220949206808F0BEF801226B46EE
:100F7000D91D206808F0B8F863689D40756102B01B
:100F800070BD034804F074FEE4E7C046D19400103D
:100F900084930010F0B583B0040007236A46D37130
:100FA0006A46402191716A46537101AB41221A7021
:100FB0006B460D3ADA706B4610329A702A23C35C86
:100FC000002B44D101252B0062689340D0263606C1
:100FD000B361214F01223900206808F085F8012211
:100FE0006B46D91D206808F07FF801226B46991DD9
:100FF000206808F079F801226B46D91C206808F0B7
:1010000073F82B006268934073610A2001F068FD59
:101010002B0062689340B36101223900206808F018
:1010200063F801226B46591D206808F05DF8012223
:1010300001A9206808F058F801226B46991C206825
:1010400008F052F863689D40756103B0F0BD034835
:1010500004F00EFEB6E7C046DA940010A09300102C
:1010600070B582B0040000236A46D3716A4693715A
:101070006A4653712A33C35C002B22D101252B0011
:1010800062689340D0263606B36101220F4920687A
:1010900008F02AF801226B46D91D206808F024F8D0
:1010A00001226B46991D206808F01EF801226B464C
:1010B000591D206808F018F863689D40756102B0FA
:1010C00070BD034804F0D4FDD8E7C046C3940010B7
:1010D000B893001070B582B004006B460722DA7135
:1010E0006B46063A9A716B4601325A7101AB7E32F9
:1010F0001A702A23C35C002B2AD101252B006268B9
:101100009340D0263606B36101221349206807F0C8
:10111000EBFF01226B46D91D206807F0E5FF012295
:101120006B46991D206807F0DFFF01226B46591DB1
:10113000206807F0D9FF012201A9206807F0D4FF39
:1011400063689D4075610A2001F0CAFC02B070BD61
:10115000024804F08DFDD0E7D2940010C89300102F
:1011600070B582B004006B460122DA712A23C35C99
:10117000002B16D101252B0062689340D02636063D
:10118000B36101220949206807F0AEFF01226B46D6
:10119000D91D206807F0A8FF63689D40756102B003
:1011A00070BD034804F064FDE4E7C046D594001028
:1011B000E4930010F0B5C64600B504002A23C35CD2
:1011C000002B20D101252B0062689340D0263606E3
:1011D000B36101220E49206807F086FF0D4B984647
:1011E0000D4F012342463900206807F095FF012387
:1011F00042463900206807F08FFF63689D407561A3
:1012000080BCB846F0BD054804F032FDDAE7C046C0
:10121000CF9400101A1C0020DE94001004940010DB
:1012200010B5040008001300012261698A40D02132
:1012300009068A612822A15C02002000FFF7ACFDAC
:101240002000FFF70DFF10BD426901239340D0221B
:101250001206536170470000F0B5DE4657464E4611
:101260004546E0B583B0040007236B449B46FF234B
:101270005A46137006226A4492461370FA3B6B4436
:10128000994600234A46137001AA9046C32241465C
:101290000A706A46D71CD370961C937053701370F3
:1012A000806900F0A5FA01220821A06900F044FA43
:1012B000204804F0DDFC012362689340D0252D0610
:1012C000AB6101221C49206807F00EFF012259463C
:1012D000206807F009FF01225146206807F004FF4B
:1012E00001224946206807F0FFFE0122414620689E
:1012F00007F0FAFE01223900206807F0F5FE01220E
:101300003100206807F0F0FE01226B46591C20686E
:1013100007F0EAFE01226946206807F0E5FE6368EF
:1013200001229A406A6103B0F0BCBB46B246A946AE
:10133000A046F0BD1C940010D494001070B582B08B
:101340000400FF236A46D3716A469371D53BC35CA0
:10135000002B1CD101252B0062689340D026360655
:10136000B36101220C49206807F0BEFE01226B46E2
:10137000D91D206807F0B8FE01226B46991D206830
:1013800007F0B2FE63689D40756102B070BD03480E
:1013900004F06EFCDEE7C046D794001030940010D5
:1013A000F0B5C64600B582B0040007236B449846EA
:1013B0000023424613706A46937101252B00426850
:1013C0009340D0273F06BB6101221849006807F00F
:1013D0008BFE174E01223100206807F085FE0123A5
:1013E00042463100206807F097FE01236A46063224
:1013F0003100206807F090FE63689D407D616B4678
:101400009B79DA0702D52C220121A1549A0702D533
:101410002D220121A1545BB2002B03DB02B080BC62
:10142000B846F0BD2E230122E254F7E7CE94001017
:10143000DE940010F8B504002A23C35C002B27D1EA
:1014400001252B0062689340D0273F06BB61012233
:101450001749206807F048FE164E01223100206827
:1014600007F042FE22003C3201233100206807F0E1
:1014700053FE012322003D323100206807F04CFE6C
:1014800063689D407D612A23E35C002B04D1F8BD95
:10149000094804F0EDFBD3E73C23E15C074804F086
:1014A00017FC3D23E15C064804F012FCEFE7C04660
:1014B000CC940010DE940010409400105C94001056
:1014C00070940010F0B5D6464F464646C0B50400AD
:1014D0000E001500FFF7AEFFFF2D4BD83C23E35C59
:1014E000AB424AD8264804F0C3FB01273B006268A0
:1014F0009340D022120691469361224B98460123D5
:1015000042462149206807F007FE21003D310123B2
:101510004246206807F000FE1C4B9A4601234246D3
:101520005146206807F0F8FD2B0032005146206834
:1015300007F0F2FD63689F404B465F612A23E35C3E
:10154000002B05D10020E0BCBA46B146A846F0BD4C
:101550000F4804F0BDFB002405E0315D0D4804F0A8
:10156000B7FB013424B2AC42F7D30A2004F04CFBA1
:101570000020E8E701204042E5E701204042E2E7A1
:10158000849400101A1C0020C8940010DE940010EF
:101590009C940010AC94001030B583B004006B46EE
:1015A000DD1D0F232B7001220549006807F09CFD0B
:1015B00020680122290007F097FD03B030BDC04626
:1015C000DB94001010B504001C4804F051FB20000F
:1015D000FFF792FA2000FFF7C9F92000FFF77AFD24
:1015E0002000FFF7ADFC2000FFF736FE2000FFF7DC
:1015F000B7FD2000FFF7DEFD2000FFF7E5F9200032
:10160000FFF7D4FA2000FFF73BFB2000FFF7F4FAC6
:101610002000FFF773FB2000FFF79EFB2000FFF781
:10162000EBFB2000FFF72EFC2000FFF7B3FC2000AF
:10163000FFF7B2FF2000FFF70DFA10BDB0940010C5
:1016400010B58300084A944663441C6840226240F7
:10165000C02414408022520113431C60C000034B7D
:101660009C466044416010BD04C001400040014000
:1016700080000B4B9C46604400290DD00823002AB3
:101680000CD004221343026853400C2213408022E2
:1016900052011043036070470023F0E70022F1E796
:1016A00004C0014070B50400D0231B061D68AA00C9
:1016B0000C4BD358002B0AD0002803D0AD00094BA7
:1016C000EC5070BD08490D2000F010FBF6E7002833
:1016D000F7D0AD00034BE850002203490D2000F085
:1016E000EBF9EEE700140020591700100723034020
:1016F0009B00C00899403C308000014BC1507047AE
:1017000000400140F8B507000C0016001D00FFF76F
:10171000EDFFFB089B00ED18072038408000844057
:10172000002E04D080239B011D432C60F8BDC023F4
:101730009B011D432C60F9E710B5D0231B061B68E5
:10174000002B03D0024BFFF7DDFF10BD014BFAE782
:101750003041014000410140F0B5D6464F46464673
:10176000C0B5D0231B061F68BA001D4BD35898463E
:10177000002F03D01B4B9946002623E01A4B9946B5
:10178000FAE724090135002C1BD033000833AB42A3
:1017900017D90F231A00224092462342F1D0BB00F2
:1017A000124A9A580123AB401342EAD1514628000D
:1017B000FFF79CFF4346002BE3D051462800C0476B
:1017C000DFE708361D2E06D8F30808339B004A468B
:1017D0009C583500D7E7E0BCBA46B146A846F0BDF4
:1017E000001400203041014000410140C419002094
:1017F00010B501238340D022120693629361052124
:10180000FFF71EFF10BD0000034B1B6802201840AD
:10181000431E9841C0B2704700C00640EFF31080ED
:1018200072B6034B1B68002BFBD0BFF35F8F704772
:101830002C0100D0BFF35F8F024B00221A6080F3AF
:10184000108870472C0100D0F8B506000C00150078
:10185000FFF7E4FFE308F718F15C072222400123B9
:1018600093400B4205D1DBB20B433B70FFF7E2FF25
:10187000F8BD2100280002F0B5F8F0B583B00600ED
:10188000019114001F00FFF7C9FF00E00134BC42C2
:101890000CD8E308F518F35C0721214001228A40A7
:1018A0001A42F3D1D2B21A432A7001E001246442F1
:1018B000FFF7C0FF002C02DB200003B0F0BD019B4E
:1018C000002BF9D0089802F08DF80000002307E003
:1018D000054A9A189200BFF35F8F0021116001330F
:1018E0001F2BF5D97047C04640000034054A1078D8
:1018F000431CDBB21370172B02D9130010221A708D
:101900007047C046300C002000B583B00100044B86
:1019100000931F2318220348FFF7AFFF03B000BD59
:10192000E094001010140020074B9B6810308000DA
:101930001950BFF35F8FBFF35F8F044B0021196015
:1019400082F310887047C04600ED00E0240100D00B
:1019500010B5091A081F0A4B9C466144094A914276
:1019600008D8C30706D440104005400D064B184365
:1019700080B210BD054B064AA321064801F098FF2E
:10198000FC070000FE0F000000E0FFFFFC940010C9
:10199000BC9700102C95001010B5091A04394C089A
:1019A000090B08D14905490D064A11430180064B30
:1019B0002343438010BD054B054AAB21054801F088
:1019C00077FFC04600F0FFFF00F8FFFFBC95001056
:1019D000909700102C95001001238340034A106853
:1019E0001840431E9841C0B27047C04600E100E075
:1019F000002904D0034B1860034B18607047034B59
:101A00001860FBE780E200E000E100E080E100E038
:101A100010B5012383401800FFF7EAFF10BD000056
:101A200001238340014A13607047C04600E200E092
:101A3000024B9B6810308000C058704700ED00E0FA
:101A400010B5FFF7F5FF002805D0054BC01A2F2869
:101A500003D8012010BD0020FCE70020FAE7C046B3
:101A6000340C002070B504000D00EFF3108672B640
:101A70000C4B1B68002BFBD0BFF35F8F2000FFF7E0
:101A8000D7FF094B984201D0A84205D13200290066
:101A90002000FFF749FF70BD044B054A8621054829
:101AA00001F006FF240100D0CD010010CC950010FC
:101AB000F09700102C950010F0B5DE4657464E46C4
:101AC0004546E0B589B0814601911500EFF3108AD3
:101AD00072B6744B1B68002BFBD0BFF35F8F724B49
:101AE0000027DF57002F40DB7C00E419A4006F487B
:101AF00024180622A2566C4B1A706D4B9A684B46FE
:101B000010339B00D35898461E001B1A2F2B38D930
:101B1000684B98452FD105AE674B33807B009B46C1
:101B2000D8198000614B9846404402306349FFF762
:101B30000FFF7080624BB380FF23B371F571019B7F
:101B400007935F44BF0047440ECE0EC701231C43DA
:101B5000A046524641464846FFF7E6FE09B0F0BCB3
:101B6000BB46B246A946A046F0BD564B564AD721C1
:101B7000564801F09DFE564B534ADE21534801F072
:101B800097FEC04340440C2103F040F8002912D1D5
:101B900001239E43B34633000026DA79AA4211D9C5
:101BA0000621595600290CDB4A00521892001E00EB
:101BB0003E4B9B18F1E7474B434AEA21434801F06B
:101BC00077FE1E00002E3AD005AB434A1A80813AB8
:101BD0005A800623F3560293002B17DA3F4805ABD1
:101BE0009B469880029A9A71DD71019A0792301D86
:101BF0002100FFF7ADFEB080B7717B00DB199B00C1
:101C00002A4FFF185B4607CB07C7A2E77800C01929
:101C10008000264BC0180430321DB388D90A1C2915
:101C200007D15B055915023149005118FFF790FEA5
:101C3000D5E72B4B2B4AB121244801F039FE05AEE4
:101C40001D4B33807B000293D8198000174A9046C1
:101C5000020042440392901C1849FFF779FE7080FD
:101C6000039A101D5946FFF773FEB0801E4B5A466B
:101C70004146521A524153431B0DB371F571019AFB
:101C80000792029B9C466744BF0047440ECE0EC796
:101C9000114B5A461380813B538001231C43A046BD
:101CA00057E7C046240100D0171C0020340C002048
:101CB00000ED00E0CD01001000A1FFFF640C00204A
:101CC00001BDFFFF04960010D89700102C9500105E
:101CD0002C960010549600100148000001BD000031
:101CE000C8960010C8970010AAAA0000F0B5CE460A
:101CF000474680B583B006000D00EFF3108872B63A
:101D0000564B1B68002BFBD0BFF35F8F544B9A6878
:101D100034001034A300D758524B9F4207D0AF4233
:101D200000D198E00197504BFB1A2F2B09D942465E
:101D300039003000FFF7F8FD03B0C0BCB946B0462B
:101D4000F0BD3000FFF748FE814600213000FFF76C
:101D50005FFEBFF35F8FEFF30581002901D08C4256
:101D600011D10123019C9C430022A368AB4212D0F5
:101D70000622A256002A0DDB53009B189B0022006E
:101D8000394CE418F1E73621384B394AFF313948EC
:101D900001F08EFD2200AB4256D106256557002D7D
:101DA00038DB6B005B199A002F4B9B189A68A26076
:101DB000DA79E27106229A56A2719B795BB2002B06
:101DC0000FDA2D48A0806B005B199B00264AD318C0
:101DD0002A4A11789971157049463000FFF718FEAC
:101DE000A5E7201D6B005B199B001F4A9B181A1D5D
:101DF0009B88D90A1C2907D15B055B150233590062
:101E00005118FFF7A5FDDDE71D4B1E4AB12119480A
:101E100001F04EFD002912D1002A0ED0FF2393714C
:101E2000194B9380154A1378A371184B0E49641A05
:101E3000644163431B0D1370CEE70A4FF2E7201D88
:101E40001349FFF7A9FDC7E76A21124B084AFF3182
:101E5000084801F02DFD034F69E7C046240100D07A
:101E600000ED00E0CD010010340C0020E0960010E1
:101E7000A89700102C95001001BD0000171C002031
:101E8000C8960010C897001001BDFFFFAAAA000065
:101E90006E0C00201497001070B5012101432E4BE9
:101EA000CB1A2F2B28D8EFF30583002B2BD0EFF381
:101EB000108C72B6294A1268002AFBD0BFF35F8FDC
:101EC000274A0400244D641B64416243120D54B23E
:101ED000244A92689B00D2588A421BD00022032ACF
:101EE00032D853009B189B001B49CB189B795BB2DF
:101EF000A3421FD00132F2E7C7211B4B1B4A490006
:101F00001B4801F0D5FC92211A4B184AFF311848A2
:101F100001F0CEFC134A92681749D150174B1A783A
:101F200082711C70BFF35F8F0C4B00221A608CF320
:101F3000108870BD0D005300991889006918FF269C
:101F40008E710F4A8A80E9E7D1210E4B074A49007A
:101F5000074801F0ADFCC046340C0020240100D03D
:101F6000AAAA000000ED00E01C9700107497001072
:101F70002C95001044970010CD010010171C002074
:101F800001BDFFFF509700100022044B02E00449FE
:101F900002C30132072AFAD97047C04600E400E0C4
:101FA0008080808000B583B00100064B009305233C
:101FB00000220548FFF761FC002801DB1F23181AE7
:101FC00003B000BD589700101E1C0020024B9C4619
:101FD00061448900016070474000003410B504007E
:101FE000FFF784FC01002000FFF7F0FFFF232371BF
:101FF000BFF35F8F10BD10B50400FFF777FC010041
:102000002000FFF7E3FFFF23237100236371BFF379
:102010005F8F10BD034B9C46614489000160BFF394
:102020005F8F70474000003410B504000120FFF7B7
:102030006BFC01002000FFF7EDFF10BD70B505003F
:102040000C00080000F000FF0949200000F040FEED
:10205000FFF74CFC074B9C466044800068602C7581
:10206000D0231B061B786B75A400034BE55070BD95
:102070008123001040000034101900200A4B1A6818
:10208000EFF3108172B61368002BFCD0BFF35F8FA3
:10209000054B1B68BFF35F8F00221A6081F3108825
:1020A00040BF002000217047D81B002010B5002938
:1020B00022D003681B7B99421ED8174B9C46614473
:1020C000090183689C4661440C684968002A19D05C
:1020D00003681B7B9A4215D883680F488446624484
:1020E00012019A1810685368020001208B4201D82F
:1020F0000ED00020C0B210BD084B094A3C2109484F
:1021000001F0D6FB054B064A3C21064801F0D0FB06
:10211000A242EFD8EDE7C046FFFFFF0F7C9A001008
:10212000349D0010F099001010B500291ED0037BDB
:1021300099421BD84B005B18033B0468A4466344D8
:10214000002919D0002A1DD0914221D0002A25D083
:10215000047BA24222D8046850008018033820185B
:102160008170197800291FD11A7010BD104B114AC7
:102170006821114801F09CFB104B114A6F310E4849
:1021800001F096FB0F4B0E4A70210B4801F090FBBB
:102190000D4B0B4A7121084801F08AFB044B054A9C
:1021A0006821054801F084FB41701A70DDE7C046E4
:1021B000A09A0010A09D0010BC9A00105C9B00101B
:1021C0007C9D0010689B0010749B001070B5060089
:1021D0000D001400002914D0002A14D08068736800
:1021E0009847002806D0220029003000FFF79CFF06
:1021F000280007E02A0021003000FFF795FF2000AB
:1022000000E0100070BD0800FCE70000F0B583B0EE
:102210000500009201930AAB1C780BAB1F78002CD1
:1022200026D003685A7B944207D10123002B19D191
:10223000002C3BD1200003B0F0BD002C0CD01A7B49
:10224000944209D81A6863001B19033BD3189B7882
:10225000002BEBD00123E9E73E4B3F4A68213F4882
:1022600001F026FB3E4B3F4A67213F4801F020FB2F
:1022700003689C7B002CDBD012D01A7B94420FD8D1
:1022800062001219033A19688C46624451789973B6
:10229000002900D1D9730023937053701370C7E7DE
:1022A0002C4B2D4A68212D4801F002FB002C3AD01E
:1022B0002B681B7B9C4236D82C4BE3181B01AA6869
:1022C00094466344009A1A60019A5A60089A9A6088
:1022D000099ADA602E68002C2BD030D0337B9C42D8
:1022E0002DD863001B19033B3268944663440022D7
:1022F0009A705A701A70717B22003000FFF766FFE7
:102300007073844200D095E7287D009A019B00F00D
:1023100027FD061E01D0002F17D00C9B002B00D1EB
:1023200088E71E7086E7124B124A3C210E4801F0E6
:10233000BFFA114B114AA521084801F0B9FA054B23
:10234000054A6821054801F0B3FA2868210000F029
:102350003FFFE2E7A09A0010A09D0010BC9A001079
:102360008C9B0010AC9D0010F0990010FFFFFF0F38
:102370007C9A0010349D0010EC990010909D001084
:10238000F0B5DE4657464E464546E0B58BB009905F
:10239000002308938200B54BD658370052E0B44B67
:1023A000B44A3F21B44801F083FAB44BB44A3C210B
:1023B000B44801F07DFA002901D1002869D100213B
:1023C000404600F0FBFEA04219D12A686B680692D5
:1023D0000793AB689846EB689A464346002B14D0A7
:1023E000002C18D03B681B7B9C4214D8631EFA68F3
:1023F000D35C08931B0218433861002015E0A24B00
:10240000A24A8E219F4801F053FAA14B9F4A922184
:102410009C4801F04DFA994B9E4A4121994801F0A0
:1024200047FA00239A46984600207B68BFF35F8FE7
:1024300000221A6086F310884346002B32D1002810
:1024400000D10CE100F000FC02000B1EA7DB002015
:102450000021069007917868EFF3108672B6016844
:102460000029FCD0BFF35F8F396888464C7B002C75
:10247000D7D09AD0097B8C4297D8874965182D010F
:10248000B9688C46654428686968801A99410029B2
:1024900091DD2A686B68099800F062FC00239A4677
:1024A0009846C2E7089B1B022343994651461800F1
:1024B000C04705000E007A68EFF3108B72B6136800
:1024C00059424B41D9B2002BF9D1BFF35F8F002E97
:1024D0001EDB002E46DD3B69002B47D04B456DD1FE
:1024E00000F0B2FB02000B1E6EDB52197341002B91
:1024F00070DB002B72DB0021049101310391029407
:1025000051460191414600913800FFF77FFE4CE0B3
:102510003B69002BDDD04B4514D1069A079B521B1B
:10252000B341002B14DB002B16DB00210491013199
:102530000391029451460191414600913800FFF702
:1025400065FE32E0554B514AA1214E4801F0B0F9E9
:1025500001225242524BE6E7454B464A3F2146484C
:1025600001F0A6F9002E01D1002DB4D13B68002C5A
:1025700050D05A7B944237D1012100294AD1DA7BCD
:10258000002A4DD19A7B002A03D1DA7B002A5AD146
:102590009C73DC73002C5CD03B681B7B9C4258D83E
:1025A000FA68013C135D0133135500233B617A68DF
:1025B000BFF35F8F13608BF3108843E7374B334AC9
:1025C000A421304801F074F9294B2A4A3F212A48B6
:1025D00001F06EF901225242314B8AE7244B254A21
:1025E0003F21254801F064F9002C0DD01A7B94425C
:1025F0000AD862001219033A186884466244927835
:10260000002ABAD00121B8E7264B274A682127487B
:1026100001F04EF9264B274AF621244801F048F9EB
:10262000002A0AD0197B8A4207D851008A18033A37
:1026300019688C4662445470A4E71A4B1A4A682100
:102640001A4801F035F91C4B1A4AFB21174801F0D2
:102650002FF90A4B0F4A41210A4801F029F90BB022
:10266000F0BCBB46B246A946A046F0BD10190020FA
:10267000B4980010009D0010D09800107C9A0010B3
:10268000349D0010F0990010B49B0010189D0010AC
:10269000CC9B0010589D0010FFFFFF0FD89B00102F
:1026A000FFFFFF7FA09A0010A09D0010BC9A0010B1
:1026B000149C00106C9D0010389C001010B50C4B41
:1026C0005B68002B04D00A210A48FFF77FFC10BD8D
:1026D000074C2300084A1021206800F07FFC0320EB
:1026E00000F0A6FA03212000FFF7A8FCEBE7C046A4
:1026F0007C0C0020D81B0020AD20001010B5064B2C
:102700005B68002B01D0044810BD044B044A5E21D5
:10271000044801F0CDF8C0467C0C00204C9C001011
:10272000409D0010F0990010F0B5DE4657464E4629
:102730004546E0B58BB0804616001F00149B9A46B4
:10274000159B994616AB1B789B461F2302AA9446FD
:10275000634400221A702BE0002809D04246126818
:10276000127B904204D8421E4146C9688A5C41E00F
:10277000404B414A4121414801F09AF807984CE00A
:10278000361BAF41002F07DB002F11DA3C4B3D4ACF
:102790003F213D4801F08CF8012676423B4FF3E79C
:1027A000374B384A3F21384801F082F8002F4FDB81
:1027B00043465A68EFF3108472B6136859424B418E
:1027C000D9B20791002BF8D1BFF35F8F1F3302AA54
:1027D0009446634404930023039302934B4601936E
:1027E0005346009332003B004046FFF70FFD031EA7
:1027F000B2D1020041464968BFF35F8F00250D60EA
:1028000084F31088002B29D01F2302A98C4663442F
:102810001B78002BB2D112021043002B20D05B4654
:10282000002B1DD04946D04704000D0003000B4388
:102830001DD00029A4DB00F007FA06000F1EAFDB55
:1028400036196F41002FB1DA012676420F4FADE7FE
:102850000B4B0C4A3F210C4801F02AF80120404262
:102860000BB0F0BCBB46B246A946A046F0BD0798E7
:10287000F6E7C0467C9A0010589D0010F0990010B1
:10288000B4980010009D0010D0980010FFFFFF7F4B
:10289000F8B50400002900D162E04268EFF310852A
:1028A00072B6136858424341D8B2002BF9D1BFF336
:1028B0005F8FCBB22268567BB3421BD10120002828
:1028C00048D0206988422BD0090AC9B2002B2ED0EB
:1028D0002068007B83422AD8581EE668305C884214
:1028E0002BD000206368BFF35F8F00221A6085F34E
:1028F0001088F8BD002B0DD0167BB3420AD85E00BD
:10290000F618033E1768BC466644B678002ED6D04B
:102910000120D4E7134B144A6821144800F0C8FF83
:102920002C21134B134AFF31134800F0C1FF134B06
:10293000134A4121104800F0BBFF1900100000F0BD
:1029400047FC0028CED199210E4B0A4A49000A487B
:1029500000F0AEFF23698B42C4D100232361C1E79D
:102960000020C6E7A09A0010A09D0010BC9A00109D
:10297000709C0010E89C0010F09900107C9A0010E8
:10298000589D0010949C0010407D7047F0B587B0B2
:1029900006000F00EFF30583002B1FD106246442CD
:1029A000E517A4197D418D4202D803D1844201D993
:1029B00000240025002D14DB0494059500F044F953
:1029C00002000B1E13DBA41A9D41002D17DC14D04E
:1029D0003000390000F044F907B0F0BD234801F0A1
:1029E00001F8234B234A3F21234800F061FF204B8D
:1029F000204A3F21204800F05BFF002CE8D0FFF781
:102A00007DFE0023029301931C4B0093049A059BC7
:102A1000FFF78AFE002818DADAE7002300E0002337
:102A2000002BD5D1164B1A68EFF3108172B61368DC
:102A3000002BFCD0BFF35F8F114B1B68BFF35F8F80
:102A400000221A6081F3108820BF0499059A0D4B6B
:102A50005B6A9A42E3D80B48806A884203D29A4262
:102A6000DBD00123DCE70123DAE7C046989C0010A5
:102A7000B4980010009D0010D09800107D20001028
:102A8000D81B00200040054070B504000D0000F088
:102A9000DBF802000B1E0ADB2000290080185941D8
:102AA00000290ADB00290CDBFFF770FF70BD084B23
:102AB000084A3F21084800F0FBFE01204042074938
:102AC000F0E7034B034A3F21034800F0F1FEC04604
:102AD000B4980010009D0010D0980010FFFFFF7FF9
:102AE00010B5FA2292000023002102F0CBFEFFF77E
:102AF000CBFF10BD70B584B005000C00EFF305836B
:102B0000002B1ED1FFF7FAFD002302930193224B05
:102B100000932A002300FFF707FE061E23DD20BFD7
:102B2000FFF7ECFD3100FFF7B3FE1C4B5B6A9C42E4
:102B30002DD81A4A926AAA422CD29C4225D0012052
:102B400026E0164B5B6A994209D8144A926A82427F
:102B500007D2994201D001201AE0002018E000209D
:102B600016E0012014E00D4B5B6A9C4209D80B4A29
:102B7000926AAA4207D29C4201D0012008E00020BC
:102B800006E0002004E0012002E0002000E0002038
:102B900004B070BD0120FBE77D200010004005401F
:102BA00070B5EFF305801038EFF3108C72B61A4B46
:102BB0001B68002BFBD0BFF35F8F01221300834003
:102BC00016494B6316490B60164909780C00C4403E
:102BD000224214D0114A546A8200134D5259944231
:102BE00006D38200114C125999430E4B197007E01D
:102BF0000A4A031D9B0099589950002200E00022C8
:102C0000BFF35F8F044B002119608CF31088002AFA
:102C100000D0904770BDC046280100D0004005405C
:102C20003C7005401D1C0020E81B0020F012002015
:102C300010B50100024A0348FEF706FE10BDC0466B
:102C4000C49D0010151C0020044B5B6A034A906A67
:102C50001900536A9942F9D17047C04600400540B7
:102C6000084B5B6A01E0074B5B6A8B42FBD301E0D8
:102C7000044B5B6A8B4203D1024B9B6A8342F7D3BE
:102C80007047C0460040054070B504000D00FFF7D6
:102C9000DBFF02000B0020002900801859418B4205
:102CA00002D804D1824202D901204042C117002932
:102CB00002DBFFF7D5FF70BD024B034A3F210348FB
:102CC00000F0F6FDB4980010BC9E0010D0980010E3
:102CD00070B504000D00EFF3108672B61B4B1B6835
:102CE000002BFBD0BFF35F8F002D1CD02000FEF720
:102CF0009FFE174B83420BD019002000FEF7B2FE57
:102D000001212000FEF784FE0123A340114A136035
:102D1000A400114BE550BFF35F8F0C4B00221A60EB
:102D200086F3108870BDA2000B4B0021D150012208
:102D3000A2400A490B7893430B7005492000FEF727
:102D4000D5FF00212000FEF763FEE4E7280100D054
:102D5000A12B001038600540F01200201D1C00203F
:102D6000F0B5DE4600B584B00400150001921E00E7
:102D70000293FFF769FF03958E4202D84ED1854238
:102D80004CD9EFF3108B72B6274B1B68002BFBD08E
:102D9000BFF35F8F254A17780125A540EBB23B436F
:102DA0001370234B5D63221D92000199D150A20044
:102DB0002049029850501B6A2B4212D11C4B1B6CAD
:102DC0002B4208D00020BFF35F8F174B00221A6000
:102DD0008BF3108823E0184B184AC521184800F0DF
:102DE00067FDFFF731FF8E4214D802D1039B834267
:102DF00010D80E4B1B78BB420ED00D4B1D625D638D
:102E00001F2004400123A3400E4A1360074B1F708C
:102E10001E38D8E70020D6E70120D4E7012004B00F
:102E200080BCBB46F0BDC046280100D01D1C002060
:102E300000400540E81B0020E89D0010A09E001007
:102E40000C9E001080E200E0EFF3108C72B60B4B8A
:102E50001B68002BFBD0BFF35F8F01238340084A20
:102E6000136208490A789A430A70BFF35F8F034BD5
:102E700000221A608CF310887047C046280100D0E9
:102E8000004005401D1C002010B500291ED0037B0A
:102E900099421BD84B005B18033B0468A44663446B
:102EA000002919D0002A1DD0914221D0002A25D016
:102EB000047BA24222D804685000801803382018EE
:102EC0008170197800291FD11A7010BD104B114A5A
:102ED0006821114800F0ECFC104B114A6F310E488C
:102EE00000F0E6FC0F4B0E4A70210B4800F0E0FCAE
:102EF0000D4B0B4A7121084800F0DAFC044B054ADF
:102F00006821054800F0D4FC41701A70DDE7C04626
:102F1000A09A001014A00010BC9A00105C9B001036
:102F200000A00010689B0010749B001070B5060094
:102F30000D001400002914D0002A14D08068736892
:102F40009847002806D0220029003000FFF79CFF98
:102F5000280007E02A0021003000FFF795FF20003D
:102F600000E0100070BD0800FCE7000010B5002371
:102F7000437301338373037BC3730123027B9A4240
:102F800014D9002B0CD0027B934209D85A00D218D6
:102F9000033A01688C4662440133DBB25370EDE7BB
:102FA0000B4B0C4A68210C4800F082FC002A09D027
:102FB000924207D8016853009A18033A8A180023EE
:102FC000537010BD024B034A6821034800F070FCA7
:102FD000A09A001014A00010BC9A001010B5017344
:102FE00042608360FFF7C2FF10BD000070B50400AF
:102FF000081E00D170BD002934D0237B994231D8FE
:103000004B005B18033B2268944663445A78002ABD
:10301000F0D02DD0237B9A422AD853009B18033B33
:1030200021688C4663445D7800215970002825D0C2
:10303000237B984222D843001B18033B21688C460F
:1030400063440021597001002000FFF76FFF060064
:1030500029002000FFF7CAFF020031002000FFF71F
:1030600065FFC7E7084B094A6821094800F020FCC2
:10307000054B064A6821064800F01AFC024B034A39
:103080006821034800F014FCA09A001014A000105E
:10309000BC9A001070B505000C00160000292FD056
:1030A00034D0037B994231D84B005B18033B026854
:1030B000944663445A78002A2ED19A78002A31D156
:1030C0001978FFF793FF0300002E0AD0EA7B002A4D
:1030D0002ED1AA7B002A03D1EA7B002A3BD1AC7314
:1030E000EC73002B3DD1002C4FD02B7B9C424CD855
:1030F0002B6861000C19033C1C190023637070BD20
:10310000254B264A3821264800F0D2FB254B264A7B
:103110006821264800F0CCFB254B204A3A21204864
:1031200000F0C6FB234B1D4A3B211D4800F0C0FBAD
:10313000002A0AD0297B8A4207D851008A18033A0C
:1031400029688C4662445470C3E7164B164A6821BE
:10315000164800F0ADFB184B104A4221104800F011
:10316000A7FB002B0BD02A7B934208D843001B18E7
:10317000033B2A689446634400229A70B3E7094BE4
:10318000094A6821094800F093FB064B064A68216A
:10319000064800F08DFBC046D49E0010EC9F001046
:1031A000DC9E0010A09A001014A00010BC9A001021
:1031B000689F0010909F0010389C001070B50400AC
:1031C0000A00457B2900FFF765FF6073280070BD8A
:1031D00070B50400002967D0437B8B420ED00029D4
:1031E00011D0037B99420ED84B005B18033B026859
:1031F000D0188378002B0CD1002056E00121FFF776
:10320000DDFF012051E0294B294A6821294800F0BF
:103210004FFB002B20D0227B93421DD85A00D3189D
:10322000033B2268D2182568EB5C8B421AD0002B36
:103230001BD0227B934218D85A00D318033B226834
:10324000D21853788B4216D0002BF0D11A4B1B4A60
:103250006B211B4800F02CFB144B154A68211548C4
:1032600000F026FB4378137007E0104B104A6821EA
:10327000104800F01DFB43785370002383704370A7
:1032800001222000FFF706FF0200617B814205D08A
:103290002000FFF74BFE6073012006E0094B074A50
:1032A0007121074800F004FB002070BDA09A0010B7
:1032B00014A00010BC9A001050970010D49F00106A
:1032C000DC9E0010B49F001070B5046BE30701D4BE
:1032D000200070BD02003032C0239B0113430A4A14
:1032E0001A60456A826AAD01AD18AD02062000F091
:1032F000BDF9064901F08AFC0100280001F086FCB6
:103300000021FFF7C1FCE3E7010300004E0E0000BF
:1033100070B504000E001500FFF7D6FF22002C3216
:10332000E16A4E40354080235B0113431D602063FA
:1033300070BD000070B505000C00062000F096F985
:10334000C000210001F062FCC60908D00E4B9E426D
:1033500016D87F23184001303400460800E00124CD
:103360006C62AE62002200212800FFF7D1FF062028
:1033700000F07CF98000A101891901F047FC70BDC3
:103380000026024CECE7C046FEFF0000FFFF0000F5
:1033900010B505394901013AD2001143002B09D07B
:1033A00002220A43012B07D0002111436E22FFF7AE
:1033B000AFFF10BD0022F4E70421F6E7002909D091
:1033C0000A22064B9C466044434258414000044B4D
:1033D000C252704780225200F3E7C0460080FCBF13
:1033E000F81B002070B505000C00062000F03EF927
:1033F000061E27D0164B9D4226D08022D203154BA5
:103400001A60154B1A60154B9B6811009943FAD14D
:1034100000212800FFF7D2FF21002800FFF78AFFD4
:1034200006000023012208212800FFF7B1FF2A002F
:103430002C3280239B01134310221A60084B2B630C
:103440000323AB64300070BD80221204D7E7C0466E
:103450000080034000E0004000F0004000C0004059
:1034600001030000F8B5DE4657464E464546E0B536
:1034700005000F0092460A9A934250D31A0E9146C5
:103480001E020A9A00233000494601F0FDFB8046E7
:103490006C006419A400304B9C466444636883420A
:1034A00000D260602B1FDBB29B46012B3DD9C023AD
:1034B0009B012343802212011A60AB00274A9958CE
:1034C000002907D0506901F0A1FB431C5800C01827
:1034D0000338FDD253465A0123685A40E0231A406C
:1034E00080235B0123431A605A46012A28D980238E
:1034F0009B012343802212011A60434663604246C7
:1035000000233000494601F0BFFBAD00134B58517A
:103510000120F0BCBB46B246A946A046F8BD104B00
:10352000104A3321104800F0C3F9012FBFD1C02346
:103530009B01234303221A60A368DB07FCD5C9E77C
:103540002168794003220A401A60A2680123BB4027
:103550001342FAD0CBE7C04600800040641400203C
:1035600020A00010CCA0001034A0001030B583B013
:103570000C2000F011F9FEF747F900280DD00023C8
:1035800004E099002D4A2E4888500133092BF8D9C0
:103590002A4B2C4A5A6203B030BD2B4B00229A674B
:1035A00000F06CF9294B01221A60274B5B6C012B50
:1035B000FBD1274B03221A60234B9B6B012BFBD1C2
:1035C000013300930433234A0121234800F054F8C7
:1035D00005230093214A0121214800F04DF8214B99
:1035E0000093002202210420FFF73CFF1E4D0095AE
:1035F0002B00002201210520FFF734FF104C00941E
:103600002300002200210720FFF72CFF0094230055
:10361000002200210820FFF725FF0A4B009323001A
:10362000002200210920FFF71DFF00952B0000223A
:1036300000210620FFF716FFADE7C0466414002006
:10364000006CDC021BB70000008000403CB0004072
:1036500030B00040002F685900800240008C86473F
:1036600000C00240001BB700405973078000014BA7
:10367000C058704764140020F0B5C64600B5040079
:103680000E0017001D00374801F0C0FA8046364B87
:10369000FA18364B9A4239D80100380001F0B6FAD0
:1036A0000200103A98235B009A4235D86B1E062B15
:1036B00038D8069B013B062B34D83F09474537D302
:1036C0002D04069B1A0315432368002B36DB284B79
:1036D0009C4244D080225201264B1A60264B1A602D
:1036E000264B9B6811009943FAD12660A060231DE8
:1036F000C02292011A43212313602368002BFCDAB5
:10370000E5600823136080BCB846F0BD1C4B1D4A21
:1037100011211D4800F0CCF81C4B1A4A19211A48F7
:1037200000F0C6F81A4B174A1C21174800F0C0F8E1
:10373000184B144A2321144800F0BAF822683F239A
:103740001340B342C3D1A3681B051B0D8342BED1F6
:10375000E368EE22D2021340AB42B8D1D3E7802215
:103760009201B9E7001BB70080E84BD380F8A9327B
:1037700000C0024000E0004000F0004000C00040F7
:10378000DCA0001050A200103CA10010CCA1001041
:10379000E8A1001034A2001080239B000343014ADB
:1037A000D362704700800540024B1A68024B5A6092
:1037B0007047C046001900200080054010B5020087
:1037C000164B8020C0051860154B1648186000295C
:1037D0000AD0154BE021C9041960002A09D1124B07
:1037E000802212061A6010BD0C4BE021C90419603A
:1037F000F3E753019B1A9800801800010B4B1860E7
:1038000080235B04984202D3084B094A1A60FFF7F1
:10381000CBFF054B8022D2051A60E4E700B00540DB
:1038200008200140FCFF010000A005400019002015
:10383000FFFFFF0010B5030010000C4A8024E405D0
:103840001460002B0DD001221343094A094CD461A6
:10385000094C5C401462516293620021FFF7AEFF95
:1038600010BD034B0022DA61F7E7C04600B0054007
:1038700000800540D3C007B02D3FF84F064BAA2269
:1038800012011A602F22DA60044B054A1A60024BBB
:103890005B68002BFBDA704700400240006002408A
:1038A00000B0FA0000BEFDE710B5FFF7FBFF000017
:1038B00010B582B00C001900002A0CD0084B002A69
:1038C0000BD00192009323000200064802F000FA98
:1038D0000120FFF7E7FF044BF1E7034AF1E7C04699
:1038E0005CA200106CA200106093001070B52B4B0E
:1038F0002B4A1A602B4B2C4A1A602C4B9A682A4B85
:103900009343FAD12A4C01E008CC9847294B9C42BA
:10391000FAD3FFF72BFE234B274A1A60234B9B68F1
:10392000DB43DB01FAD1254B40229A675A671A67BD
:10393000DA66234C09E0234B234A87212348FFF70B
:10394000B7FF2000FEF74AFB0834214B9C4209D206
:103950002368002BF5D0012BEDD12000FEF74BFBA7
:103960000834F2E71B4CA1681B4DC022280002F06E
:1039700049F8A560EFF30583002B00D000BEFDF7EA
:10398000A5FFFEF701FBFEF799FE144C01E008CC01
:103990009847134B9C42FAD370BDC04600E00040EC
:1039A000BFCDFBFE00F00040FE7F3C0000C00040A9
:1039B000380D0020480D0020FFFFFF0100F00140FE
:1039C000200D00209CA2001060A30010BCA20010DB
:1039D000380D002000ED00E000000020480D002020
:1039E000540D00200FB400B583B0084802F040F930
:1039F000049B002B07D005A90191180002F048F99B
:103A0000034802F035F90120FFF74CFF50A30010E6
:103A100004930010704710B5002802D00B68496865
:103A2000984710BD0100002007E083001B185B00D1
:103A3000501C08601078C01830380A681378303B82
:103A4000DBB2092BF1D97047F0B5DE4657464E463A
:103A50004546E0B583B093461F000C9B9A460D9CEB
:103A60000E9B99460F9B9B0703D0B8460F0006009C
:103A700022E00192A34688464E46B9460700B4426A
:103A800007D2551C4B4641462020B84701342A0036
:103A9000F5E73D004F465C46019B9B46B1464646D6
:103AA000B84637002E0007E0013C551C5346185D10
:103AB00043463900B0472A00002CF5D135003E00BE
:103AC00047460F9B9B0707D4100003B0F0BCBB46D2
:103AD000B246A946A046F0BDB0464E46B9462F00B4
:103AE0005D46531BB342EFD2541C4B464146202047
:103AF000B8472200F5E7F0B5CE46474680B585B019
:103B0000944698460C9D0D9C0EAB1B789946109AD6
:103B1000119B129EB7071CD4002B0CD0F7070AD5B7
:103B20004F46002F02D10C37374204D0013B02E050
:103B300030272F550134944201D21F2CF8D9F707B2
:103B400007D59C4205D21F2C03D830272F550134AE
:103B5000F5E7F70615D5770505D4002C03D0944278
:103B600024D09C4222D00F9A102A2BD00F9A102AD0
:103B700030D00F9A022A35D01F2C02D830222A5575
:103B800001341F2C05D84A46002A31D02D222A554F
:103B90000134039602930194009543466246FFF771
:103BA00053FF05B0C0BCB946B046F0BD621E012C43
:103BB00006D00F9F102F01D01400D4E7023CD2E7AB
:103BC0001400D0E7B206D1D41F2CCFD878222A55C2
:103BD0000134D1E7B206CCD51F2CCAD858222A55B9
:103BE0000134C9E71F2CC7D860322A550134C3E716
:103BF000720703D52B222A550134CAE73207C8D5EC
:103C000020222A550134C4E7F0B5DE4657464E4619
:103C10004546E0B593B081468A46089209931CABAD
:103C200010CB1B789B461E9D219B9846002C03D1F0
:103C3000102342469A4390468023DB0046461E40AE
:103C400042461A4212D0002C22D000260EE0303319
:103C5000D9B2771C0AAB99552900200000F0D6FF95
:103C6000AC4216D31F2F14D83E00040029002000B8
:103C700000F0CCFFCBB2092BE9D94246920605D51C
:103C80004121C918C9B20A39C9B2E2E76121F8E78E
:103C9000270043460693209B05931F9B049303959F
:103CA0005B46029301970AAB0093099B089A514621
:103CB0004846FFF720FF13B0F0BCBB46B246A9460A
:103CC000A046F0BDF0B5DE4657464E464546E0B547
:103CD00095B0089009910A920B931E9E1F9C20ABF1
:103CE0001B789B46229B9946239D269B9A46330030
:103CF000234303D1103352469A4392468023DB007C
:103D000057461F4052461A4219D0330023432DD044
:103D1000002714E03033DAB27B1C98460CABDA553E
:103D20004A462B003000210000F0AEFFA5421FD80C
:103D300019D043461F2B1BD8474606000C004A46A5
:103D40002B003000210000F09FFFD3B2092BE1D9F6
:103D50005246920605D54122D218D2B20A3AD2B2C0
:103D6000DAE76122F8E7B145E3D901E0002398469C
:103D700053460693259B0593249B04934B4603933C
:103D80005B460293434601930CAB00930B9B0A9A4C
:103D900009990898FFF7AFFE15B0F0BCBB46B246D4
:103DA000A946A046F0BD0000F0B5DE4657464E4697
:103DB0004546E0B591B083468A460C9298461A9CD7
:103DC00008941B9D099522002B002000290001F07A
:103DD000E6F9002800D0E5E001225242D74B20004E
:103DE000290001F0D7F9002800D0DBE0012252427F
:103DF000D34B2000290001F0B7F9002800D0D1E012
:103E000000220023089E3000099D290001F0ACF932
:103E1000002800D0DDE008980999069007918023DA
:103E2000DB001E9A1A400D921E9A1A4201D10623F7
:103E30001C930698079904000D000A00060002432F
:103E400000D1D1E0080D4005400DBE4CA4466044B1
:103E50000A03120BBC4B13431F0001F0B3F9BB4A1A
:103E6000BB4B01F03EF9BB4ABB4B01F013F9040018
:103E70000D000022B94B3000390001F002F9B84AB8
:103E8000B84B01F02EF902000B002000290001F0D0
:103E900001F901F0AFF9814601F094F904000D0039
:103EA000B14AB24B01F01DF90022B14B01F0F2F81A
:103EB00001F0A0F90600AF4AAF4B2000290001F045
:103EC00010F904000D00300001F07CF9AB4AAC4B56
:103ED00001F007F902000B002000290001F0D1F8E1
:103EE00004000D0002000B0001F0FBF80A900B919A
:103EF000A44BF31800261F0522002B0020002900E8
:103F000001F0C8F80E900F9122002B0000208021B4
:103F1000C90501F0B6F804000D0000229A4B0A987A
:103F20000B9901F0C0F80022984B01F0B3F80200A1
:103F30000B000A980B9901F0B6F80022944B01F09F
:103F4000A9F802000B000A980B9901F0ACF80200E6
:103F50000B002000290001F09DF802000B000E98D4
:103F60000F9901F0A0F80022774B01F093F832008E
:103F70003B0001F0B6F806000F0004000D00069AA1
:103F8000079B01F007F9002830D001235B429C46D3
:103F9000E14400227D4B3000390001F084F8040038
:103FA0000D0023E01E9B04931D9B03931C9B029317
:103FB000089A099B0092019343460C9A5146584631
:103FC00000F0FCF811B0F0BCBB46B246A946A046D2
:103FD000F0BD0023002406930794069680231B0659
:103FE0009C46654407951AE7002399464B46633380
:103FF000C62B1ED804261E9B1B0526D52B0023434B
:104000000FD0644A644B0698079901F0BBF800286A
:1040100079D00022614B0698079901F0A5F8002895
:1040200071D01C9B4B4506DD4A46981A431E1C93D3
:1040300003E00526DFE700231C938023DB001E9AA4
:104040001A431E920026002399461D9B9E4264D26D
:104050009F1B02231E9A1A400A921E9A134202D0F4
:10406000002E00D000274B46002B07D022002B004B
:104070000698079901F017F806900791002200238F
:104080000898099901F070F8002848D1444B1E9A0D
:104090001340049303971C9B0293069B079C009379
:1040A000019443460C9A5146584600F087F8002E7A
:1040B00000D187E71E9B9B063DD54525441C434602
:1040C000020051462800D8474B46DA179B18534048
:1040D00005220592013E0496002203920A320292C2
:1040E0004A46D00F0190009343462200514658465D
:1040F000FFF78AFD0A9B002B00D163E702005F46B1
:104100000C9E1D9D54E01C9B002B9ED00D9B002BF4
:104110009BD01C9B013B1C9397E7002799E7069CCB
:10412000079D2200290080200006844661440B0080
:1041300006920793AAE76525C0E7C046FFFFEF7F19
:10414000FFFFEFFF01FCFFFF0000F03FFB799F50F6
:104150001344D33FB3C8608B288AC63F0000F83FA2
:1041600061436F63A787D23F71A379094F930A40D8
:104170000000E03F1655B5BBB16B0240EF39FAFEC7
:10418000422EE63FFF03000000002C4000002440C8
:10419000000018402D431CEBE2361A3F80842E416C
:1041A000FFF7FFFF541C434651462020B84722002A
:1041B000931BAB42F6D3100004E7C046F0B5DE46D1
:1041C00057464E464546E0B595B006900791934652
:1041D0009946209F1E9A1F9B1000190000F0DFFFD8
:1041E000002831D101225242BF4B1E981F9900F086
:1041F000BBFF002837D101225242BC4B1E981F99A9
:1042000000F0C8FF00283DD10022B94B1E981F992D
:1042100000F0C0FF002850D10022B64B1E981F9915
:1042200000F0A2FF002848D1002200231E981F9909
:1042300000F09AFF002850D100239846229B5B058E
:1042400000D4B6E0002458E0229B0393219B029304
:1042500003230193A84B00934B465A4607990698AF
:10426000FFF7F2FB0EE1229B0393219B02930423B1
:104270000193A24B00934B465A4607990698FFF7C5
:10428000E3FBFFE00423229A1A4022990B4210D04C
:104290009B4B002A0FD0042222990391219902916D
:1042A000019200934B465A4607990698FFF7CCFBBC
:1042B000E8E0944BEDE70322EEE7229B0493219B79
:1042C000039302971E9B1F9C009301944B465A46F2
:1042D00007990698FFF768FDD4E01E9A1F9B0020FF
:1042E000002100F0CEFE1E901F9101239846A5E705
:1042F0000CAB30221A55013F01341F2C01D8092F75
:10430000F6D81E981F9900F075FF050000F05AFFBF
:1043100002000B001E981F9900F0B3FEFA007A4BC2
:104320009B181A685B680A920B9300F0DAFE0890FB
:10433000099100F083FF060000F040FF02000B002F
:104340000898099900F09DFE0890099100226F4B92
:1043500000F020FF00282ED00136300000F02EFFA4
:1043600002000B000A980B9900F004FF002801D00E
:1043700001350026002F2CD1280000F023FF020079
:104380000B001E981F9900F07CFE06000F00002213
:104390005E4B00F0E9FE002846D100225B4B300066
:1043A000390000F0F7FE00283ED1EB073CD501357F
:1043B0003AE0062746E70022544B0898099900F096
:1043C000D3FE0028D6D1002E01D0F307D2D5013676
:1043D000D0E7AA461F2C11D8013F0A21300000F077
:1043E00015FC651C30310CAB19550A21300000F06A
:1043F0000DFC092E0ED906002C00EBE755461F2CAC
:104400000CD87B1E002F09D00CAA302111551F009B
:104410000134F4E72B0055461C00F0E71F2C03D8AD
:104420000CAB2E221A5501341F2C10D80A2128005B
:1044300000F0C4FB661C30310CAB19550A21280072
:1044400000F0BCFB051E01D03400EDE7340003236F
:10445000229A1340012B1CD01F2C06D84346002B58
:1044600032D00CAB2D221A550134229B0393219B91
:10447000029301940CAB00934B465A460799069859
:10448000FFF7E2FA15B0F0BCBB46B246A946A0461B
:10449000F0BD219B002B13D04346002B02D10C33DF
:1044A00013420FD0219B013B2193190003E00CAB79
:1044B00030221A5501348C42CED21F2CF7D9CBE7CB
:1044C0002199F8E72199F6E7229B5B0704D50CAB0D
:1044D0002B221A550134C8E7229B1B07C5D50CAB0C
:1044E00020221A550134C0E7FFFFEFFFFFFFEF7FE7
:1044F00065CDCD4165CDCDC17CA3001080A300105A
:1045000074A3001070A3001068A500100000E03F25
:10451000F0B5DE4657464E464546E0B593B0824676
:104520008B4690461193002900D1EBE200275546B7
:10453000119B1878002800D1E7E2252809D07C1CBF
:1045400043463A005946A847119B0133119327006F
:10455000EEE7013311930024119A11780B00203BF0
:10456000D8B2102803D88300D048C3589F460B0008
:10457000303BDBB2092B2CD92A292FD000230A93F8
:10458000119B1A782E2A39D000239A46119A137853
:10459000683BD9B2122976D88B00C549CB589F46C3
:1045A00001231C4301321192D6E702231C4301323E
:1045B0001192D1E704231C4301321192CCE7082366
:1045C0001C4301321192C7E710231C4301321192A0
:1045D000C2E711A8FFF726FA0A90D1E71C9B1A1D23
:1045E0001C921868002804DB0A90119B0133119378
:1045F000C6E702231C4343420A93F6E78022D20017
:1046000014435A1C11925A781300303BDBB2092B29
:1046100004D92A2A07D000239A46B7E711A8FFF742
:1046200001FA8246B2E71C9B1A1D1C9218680028EA
:1046300004DB8246119B01331193A7E70020F8E7C2
:1046400080235B002343511C119152786C2A01D0C6
:104650001C0018E0C0239B001C430131119112E0A3
:1046600080232343511C11915278682A01D01C00E9
:1046700009E0C0231C430131119104E080235B0059
:104680001C4301321192119B18780300253BDAB2CA
:10469000532A00D92CE29300864AD3589F468023A0
:1046A0009B001C4301321192EDE780235B001C4309
:1046B00001321192E7E7782809D0582838D06F28BE
:1046C00038D0622838D010239C430A2600E01026F8
:1046D000582833D0692803D0642801D00C22944391
:1046E000630501D50122944369282AD0642828D083
:1046F000A30500D59FE0E30500D5B8E0630600D42C
:10470000CAE01C9A111D1C911168FF220A400594F1
:104710000A9B04935346039302960023019300924D
:1047200043463A0059462800FFF76EFA070027E093
:104730001026CDE70826CBE70226C9E7202214433E
:10474000C8E7A30520D4E30550D4630666D51C9AB8
:10475000111D1C911168FF220A40D317D11859402E
:1047600005940A9B0493534603930296D20F019239
:10477000009143463A0059462800FFF745FA0700E2
:10478000119B01331193D3E61C9BDA1D07218A4349
:10479000110008311C91116853689C46DB170C937B
:1047A0000D930C9A0D9B100048400E9062465340AA
:1047B0000F930E980F990C9A0D9B801A99410E90A9
:1047C0000F9108940A9B079353460693049600237F
:1047D00005936346DA0F02920090019143463A0036
:1047E00059462800FFF76EFA0700C9E71C9A111D09
:1047F0001C911268D317D118594005940A9B049351
:10480000534603930296D20F0192009143463A0019
:1048100059462800FFF7F8F90700B1E7230605D548
:104820001C9A111D1C910023D25E96E71C9A111D43
:104830001C91126891E71C9BDA1D07218A43110025
:1048400008311C9108940A9B0793534606930496DB
:104850000023059302931368546800930194434620
:104860003A0059462800FFF72DFA070088E71C9AFE
:10487000111D1C9105940A9B0493534603930296C1
:10488000002301931368009343463A0059462800D9
:10489000FFF7BAF9070073E723060DD51C9A111D1F
:1048A0001C9112681204120C31E7C04688A3001054
:1048B000CCA3001018A400101C9A111D1C911268A2
:1048C00025E746281AD01C9B0733072293431A007A
:1048D00008321C9204940A9A0392524602925C682F
:1048E0001B680093019443463A0059462800FFF79D
:1048F00065FC0700119B0133119319E620231C432B
:10490000E1E7672801D0472802D180231B011C431F
:10491000452801D0472801D120231C431C9B073385
:10492000072293431A0008321C9204940A9A0392B5
:10493000524602925C681B680093019443463A0019
:1049400059462800FFF730FA0700119B01331193F5
:10495000EEE502231A002240924623421FD0012492
:104960001C9B1A1D1C927A1C9146187843463A00EB
:104970005946A8475346002B16D1119B013311937A
:104980004F46D5E5561C434659462020B8472300DC
:1049900032005C1C9D42F5D83D001700E0E7012382
:1049A0003A002F000A9DF4E74A46A9460A9D06E010
:1049B000571C434659462020C84734003A00661C1D
:1049C000A542F5D84D469146D7E71C9B1A1D1C926F
:1049D0001B6899465346002B00D1013B4E4601E02F
:1049E000013613003278002A02D05A1E002BF7D16C
:1049F0004B46F21A10928023DB0026001E401C4218
:104A000003D0524501D95346109302231A00224085
:104A10000B92234205D03A0037004C46A946554632
:104A200020E03A00109B5F46B3462E0006E0551C7E
:104A3000434639002020B04723002A005C1C0A9915
:104A40009942F4D835005E46BB46109437004C4678
:104A5000A946554606E01D000134561C43465946FA
:104A6000C84732002078002804D0002FF4D06B1EF5
:104A7000002DF0D117004D460B9B002B03D1119B4D
:104A80000133119354E50A9F109B06E0561C4346E0
:104A900059462020A847230032005C1C9F42F5D8CD
:104AA0001700ECE721231C431C9B1A1D1C921B685A
:104AB0000093059408230493534603931023029311
:104AC0000023019343463A0059462800FFF79CF81B
:104AD0000700119B013311932AE57C1C43463A00E1
:104AE00059462520A847119B0133119327001FE544
:104AF0007C1C43463A005946A847119B0133119349
:104B0000270015E50A4B9A4610E5AA46474502D309
:104B100043465A1E00E03A00434659460020D0471B
:104B2000380013B0F0BCBB46B246A946A046F0BD63
:104B3000153A001000B585B0029003910121009351
:104B400013004A4202A90248FFF7E2FC05B000BD8B
:104B5000173A001001480421014B1847B00C0020FF
:104B6000854B001010B5010018231B8814221088F3
:104B7000984710BD10B5010018231B881622108815
:104B8000984710BDF0B5C64600B507000E000025D9
:104B90000123984600E00135B5420AD2AC003C1929
:104BA0002068FFF7DFFF20600028F4D1002398463B
:104BB000F1E7404680BCB846F0BD0000124A936F52
:104BC0009B0815D29066D166002905D0FFE7FFE764
:104BD000FFE7516F106F704704B580210906C217B7
:104BE0005140002800D0C84304F066FA002104BDFB
:104BF000F0B5146E556E576F166FFFF7E3FF14662E
:104C0000556657671667F0BD000000D0114A936FD4
:104C10009B0813D210665166002905D0FFE7FFE715
:104C2000FFE7516F106F704704B5002801D00020D6
:104C3000C04304F041FA002104BDC046F0B5146E33
:104C4000556E576F166FFFF7E5FF14665566576789
:104C50001667F0BD000000D094464A4A926F920851
:104C6000624601D228E0C046F0B5464E346E756EFD
:104C7000776F366F00F020F89446424A1466556606
:104C8000576716676246F0BD94463E4A926F920897
:104C9000624601D254E0C046F0B53A4E346E756EAD
:104CA000776F366F00F04CF89446364A14665566B6
:104CB000576716676246F0BD002B24DB11D0002930
:104CC0003EDA00B5C943404200D1013100F038F866
:104CD000C943404200D10131DB43524200D101338C
:104CE00000BD002AEBD1002801D1002905D0002009
:104CF000C90FC90701D1C043410800B504F0CCF980
:104D00000022002300BD00B500290ADBDB4352422C
:104D100000D1013300F014F8C943404200D1013101
:104D200000BDC943404200D10131DB43524200D1B2
:104D3000013300F005F8DB43524200D1013300BDDE
:104D4000002923D1002B18D1002A0CD0BC460D4FCE
:104D500038667A6600210023FFE7FFE7FFE77A6FF6
:104D6000386F67467047002801D00748010000B53A
:104D700004F092F90022002300BD02000B00002085
:104D800000217047000000D0FFFFFFFF002B00D084
:104D9000BFE0130C28D1002AE7D080B4114F396648
:104DA0007A66FFE7FFE730B4040C7B6F396F1B04B2
:104DB00023433B667A66FFE7FFE7FFE7C04684B21E
:104DC0007B6F3D6F1B0423433B667A66FFE7FFE77B
:104DD000C04600232C042D0C7A6F386F00196941EE
:104DE000B0BC7047000000D0F0B594460025140E0A
:104DF00001D112020835140F01D112010435940FAC
:104E000001D192000235D40F01D152000135D40BEB
:104E10000134254F7C66254C3C660E0C93B2FFE7AF
:104E2000FFE7FFE73C6F6643360C7703BE467343EC
:104E3000DF0B5B04C01AB941130C7343DB18C91AAA
:104E4000CE086643360CB64493B273431F0F1B0162
:104E5000C01AB941130C73431F0B1B05C01AB9418B
:104E6000860D8F023E436643360C092D24DB520A21
:104E70007243801A7703460A6643360C16235B1B7F
:104E8000DE40DF40BF1964466643821B704604352E
:104E900006330100D940A840C01900D30131A24215
:104EA00006D20023F0BD0000000000D0FFFFFFFF8E
:104EB000121B0130F3D3F1E709277F1BFE40644644
:104EC000A2B27243801A00D20139220C7243130C31
:104ED0001204821A99410B00704604351337010001
:104EE000F940A840801900D30131002B02D1A24221
:104EF0000AD2F0BD013000D30131121BFAD2013BBE
:104F0000F8D1A24200D2F0BD013000D30131121B12
:104F1000F7E7F0B51C0C00D080E00CB400251C0AAB
:104F200004D11B02160E3343120208351C0B04D1A8
:104F30001B01160F3343120104359C0B04D19B0057
:104F4000960F334392000235DC0B02D192185B417D
:104F500001351C00971864410134464F7C66464C6D
:104F60003C660E0CFFE7FFE7FFE7C0463C6F664379
:104F7000360C7703BE4697B27743C01B00D2013987
:104F8000C01B00D201399FB27743C91BC91B170C44
:104F900077437E04FF0B801BB941CE086643360C75
:104FA0000C2D33DBB644120B1F053A431B0B97B293
:104FB0007743C01B00D201399FB27743C91B170C3E
:104FC00077433E043F0C801BB941860D8F023E4360
:104FD000664329277F1BFE400C3D7746AF40BF1933
:104FE00030BCA2B2ABB272437343801A9941220C17
:104FF0007243130C1204801A994102000B0001370E
:10500000001BA941F9D2781E0021F0BD0C277F1B9F
:10501000FE4077467F0BAF40FF19E0E700245D1CA0
:1050200007D0144F7D663966FFE7FFE7FFE7FFE72C
:105030003C6F95B29EB265436643401BB141150C6F
:105040001E0C6543664336042F0C3E432D04401B63
:10505000B141994204D202000B0020000021F0BDB2
:1050600001D19042F7D3801A994101349942F2D389
:10507000F6E70000000000D0FFFFFFFF484041407E
:10508000484018B41B4B5B68FC46019308BD04DF25
:105090005753001018B4174B1B68FC46019308BD0A
:1050A00000DF615300109446134A926F920809D2B0
:1050B000624618B40F4BDB68FC46019308BD0CDF59
:1050C000195600100C4AF0B5146E556E576F166FD6
:1050D0006246FFF7EEFF084A146655665767166783
:1050E000F0BD18B4034B9B68FC46019308BD08DF74
:1050F000BD540010D4190020000000D0FFB550406E
:105100004240504059404B40594000E0FFB5154FD8
:105110004C00640D03D0BC4204D10C0314D8002011
:10512000090D09055C00640D03D0BC4204D11C03C9
:105130000AD800221B0D1B0501264B4009D44B4009
:1051400003D58B4200D18242FFBD9942FCD19042EF
:10515000FFBD0B43DB1803431343F5D0C943491884
:10516000FFBD0000FF07000000B5FFF7CFFF804143
:1051700000BDC04600B5FFF7C9FF01D9002000BD42
:10518000012000BD00B5FFF7B9FF01D9002000BD27
:10519000012000BD00B5FFF7B1FF804100BD012037
:1051A00040054A00121804D85A00121801D80020ED
:1051B0007047012070470020704700000021002840
:1051C00005D17047C1174840401AFAD0C90713B536
:1051D000064B1B6898470CBC441CA2401005120BE0
:1051E0000349091B09051943114310BDD41A0020B6
:1051F0001F04000010B54C00620D8023D218DB00A4
:10520000D21A5B057E2A10DD9E3A13DACC17090309
:10521000490819435242D140640001341532202A12
:1052200005DAD0400843604310BD002010BD084699
:10523000604310BDC80FC018013810BD18B4044B2E
:105240005B6AFC46019308BD24DFC95700100000CB
:10525000D419002070B513231C78012C14D0012C14
:1052600014DC022C02DC1F4A1F4B9A641F48FFF714
:1052700079FC1F4B186070BD99001A481A4A885073
:1052800001331F2BF8D9EAE70023FAE71948FFF7A3
:1052900071FC05001848FFF76DFC023803789B008D
:1052A0007F2B19DD802229000F4800F0ABFB022C78
:1052B000D7D1124B1A88B5231B029A4209D1104B41
:1052C0001A88104B9A4204D10F4B1A880F4B9A42FE
:1052D000C7D00020FEF786FB0D4B0E4A32210E4848
:1052E000FEF7E6FA1D530010D41900204C330000DD
:1052F000D41A0020534400005346000054380000E4
:10530000D8380000494600009C380000594600008B
:10531000B8A50010A8A600100CA6001007B560469E
:10532000002800D100BE01880A0A0230DF2AFAD123
:10533000C9B2820804D3028840880004104300E008
:105340000068024A5050039007BD0000D4190020A5
:105350000FB403BC0CBCF0B50124E407634000E0CB
:10536000F0B50C0DCF0F661E3605891B640503D3FF
:10537000C943404200D30131640D03D0661CF60AD4
:1053800007D0E41B00207F00791C89078912803C2C
:1053900024031D0DDF0F6E1E36059B1B6D0503D309
:1053A000DB43524200D301336D0D03D06E1CF60A6D
:1053B00007D0ED1B00227F007B1C9B079B12803DCA
:1053C0002D032F1B661B58D4A446202E46DA203707
:1053D0001400BC401D00BD40F24033412A438018F8
:1053E0005941CB0F05D0C943C0430022644250410C
:1053F000514162464D0D28D10D0D07D100281FD017
:10540000241940414941013A0D0DF9D0640006D3F9
:10541000013000D30131002C01D140084000013A95
:105420000BD4941CE40A04D112051144DB0719447F
:10543000F0BDD907204B194300E0D9070020F0BD8B
:105440000029DDD1002CDBD1F0BD0132C6074008B8
:10545000CD0728434908002EE1D0D9E73C2E29DAB0
:10546000203E40371400BC4000D00124F2401443D9
:105470001A00BB401C43D317ACE7AC46202F08DA18
:1054800020360400B4400D00B540F84039412843AF
:10549000A5E73C2F0CDA203F40360400B44000D092
:1054A0000124F84004430800B1400C43C117EAE767
:1054B00010001900002494E70000F07FF0B50C0DF7
:1054C000661E3605891BE60A6405640D02D0651C5C
:1054D000ED0A04D0002001210905803C2403A446E4
:1054E0001C0D671E3F05DB1BE70A6405640D02D037
:1054F000651CED0A04D0002201231B05803C240317
:105500007740644497B484B296B27443070C7E43E8
:10551000150C6F4380B26843361802D30120000493
:105520003F183004350C00197D41844688B29AB288
:1055300050430C0C62431F0C7C438EB27E43921985
:1055400002D301263604A4191604170C3618674135
:1055500001BC81B29AB25143040C62431B0C5C4300
:1055600080B25843121802D30120000424181004FA
:10557000130C401863412D185E410020474106BCC2
:1055800088B293B258430C0C6343120C544389B253
:1055900051435B1802D301210904641819041A0C41
:1055A000091862416D1856410020474118BCF902A4
:1055B000720D1143F0026A0D1043ED020A0D03D182
:1055C0006D1940414941013B124E9B1B7600B3428D
:1055D0000ED26D0007D30130002671416646354377
:1055E00001D1400840001B05C918E4072144F0BD63
:1055F0000BDA013306D1013004D101314F0D01D056
:105600004908F2E7E1070020F0BD0136310500202E
:10561000EBE70000FF030000F0B51C0D671E3F051F
:10562000DB1BE70A6405640D02D0661CF60A04D091
:10563000002201231B05803C2403D0252D060026D3
:10564000F6432E661E096E66CE0FF619B446490063
:105650004F0D02D07E1CF60A03D000200021403FEF
:105660003F033E1BB600B444013F7F05C91B4908F8
:105670002E6F013676089C02950D25437543ED1378
:105680007543AD1301356D10F603761B0CB4CC02D7
:10569000450D2C43A2B2B3B25A43270C7B43350CC1
:1056A0006F43A4B26C431B1902D3012424043F1995
:1056B0001C041D0CA4187D4124196D41009A91B25F
:1056C000ACB26143170C7C432B0C5F4392B25A433C
:1056D000A41802D301221204BF182204230C52186A
:1056E0007B41019C6C431B19520ED9010A434401B2
:1056F000A01A81B2B2B2514303145A43360C734319
:1057000087B27743D617D21900277E4136049B19FA
:105710001704160C7F185E417316ED18F30100266E
:1057200080337541A90F06D16400690AE8055B0A58
:10573000184309D22FE00422944480337541A90A0A
:10574000A8059B0A184326D3404149412404009AE6
:10575000019B0D005543641B4343E41A95B286B286
:105760007543170C7E43030C5F4392B25A43B6183D
:1057700002D301221204BF183204330C52197B41A8
:1057800052429C41002C02D4002201305141400879
:10579000CA071043490802B06246D7079210084B67
:1057A000D218084B9A4203D212058918C919F0BDC4
:1057B0000020002A01DC3900F0BD01331905F5E7AE
:1057C000FD030000FE070000002200B5203200F0BB
:1057D00004F8080000BD000000220B150AD410B523
:1057E000944600F031F81414013400DA0021CB178C
:1057F000144C20470020002170476244343A0CD4F6
:105800000C2A07DA04009140904052422032D440E2
:10581000214310BDD843D94310BD203207D40C46D4
:105820009440524220321141D040204310BD080024
:10583000C917203203D452422032104110BD180043
:10584000190010BDFB5700100A0DCC0F531E1B058D
:10585000C91A520503D3C943404200D30131520D46
:1058600003D0531CDB0A07D0121B00206400611C0C
:1058700089078912803A1203014BD21A704700003F
:10588000FF03000051434343C9188C46110C83B2F7
:105890004B4310B4040C614392B280B25043624354
:1058A0001C041B0C001910BC59411304120CC01825
:1058B000514161447047000070B513231D782A4898
:1058C000FFF758F90400012D11D0012D09DDA31EA9
:1058D0001B789B007F2B40DD80222100234800F0B5
:1058E00091F82348FFF73EF9224B186070BD54220F
:1058F00001001E4800F086F81F4B1A881F4B9A4281
:105900001CD1A7239B011A881D4B9A4216D11D4B0F
:105910001A881D4B9A4211D11C4B1A8894239B0163
:105920009A420BD11A4B1A881A4B9A4206D11A4B3B
:105930001A681A4B9A4201D1152307E01848FEF75E
:1059400051F899001748094A885001331F2BF8D99C
:10595000144A064B1A62DA61B7E7134B134A422125
:105960001348FDF7A5FFC04653460000D81A002093
:105970004C330000D41A0020EE290000C40F0000B0
:10598000C20D0000962B0000C0B50000182B0000CF
:10599000CC2A000010B50000FC2C000051ED8764FB
:1059A00060930010B5590010BCA600108CA7001021
:1059B000F0A6001007B56046002800D100BE01889F
:1059C0000A0A0230DF2AFAD1C9B2820804D3028857
:1059D00040880004104300E00068024A50500390E1
:1059E00007BD0000D81A002001480421014B1847C8
:1059F000C00C0020854B0010014B1B6818470000AD
:105A0000C00C0020014B5B6818470000C00C002050
:105A100010B50300080011001B68984710BD000076
:105A2000F8B507000D001600437D002B02D00024BE
:105A300000200CE003681100280098472DE03B7D12
:105A400010E0022115483B689847601C0134B442BD
:105A500014DA002CF3DD2B19013B1B780D3B5A4265
:105A60005341DBB22A5D0A2AF0D1002BEED1A042CD
:105A7000E7DA211A28183B689847E2E7B04203DAD0
:105A8000311A28183B689847002E06DDAD19013DF4
:105A90002B780D3B5A4253413B75F8BD18A80010B6
:105AA00070B505000368002B16D00C4B1C6805E090
:105AB000290004C92000FFF7B3FF2469002C09D096
:105AC0002368002BF9D0064B1B68002BF0D0A342B3
:105AD000F3D1EDE700232B6070BDC046F414002025
